:02000002D0002C
:1040000000400D0074510D00000006000C00050179
:084010000401BD0B00000000DB
:044018002C4F0D001C
:10401C0009480A49884208B505D0094A824202D0AB
:10402C00121A00F03BFF0748074A0021121A00F051
:10403C0043FF014808BD00BFCCE50320E4500D0050
:10404C0034E6032034E60320F0E7032070B5074E76
:10405C00074C00F079FBA41BA4080025A54200D155
:10406C0070BD56F8043B98470135F7E7B4500D0086
:10407C00D8500D0000F01BB808B500F023F8BDE8CF
:10408C00084000F023BB00F0E5B900F0EBB9007874
:10409C00B0FA80F04009704701230370704710B5E7
:1040AC000446006808B100F0DDF9204610BD08B5E3
:1040BC000121062000F05CFEBDE80840002107202D
:1040CC0000F056BE08B5072000F07CFE28B1002198
:1040DC00BDE80840062000F05CBE0121F8E70000B6
:1040EC0038B50A4C0A4BA360002503202560A58037
:1040FC00A57100F023F90749074A204600F0B6FEE7
:10410C0029460120BDE8384000F020B938E60320EC
:10411C000000FFFFAB400D0034E6032008B5024B56
:10412C001B689B68019308BD6802030008B5024B2D
:10413C001B68DB68019308BD6802030008B5024BDD
:10414C001B689B68019308BD2C02030008B5024B49
:10415C001B68DB68019308BD2C02030008B5024BF9
:10416C001B681B69019308BD2C02030008B5024BA8
:10417C001B685B69019308BD2C02030008B5024B58
:10418C001B685B68019308BD1802030008B5024B5D
:10419C001B685B69019308BD1802030008B5024B4C
:1041AC001B685B6C019308BD4802030008B5024B09
:1041BC001B689B6C019308BD4802030008B5024BB9
:1041CC001B685B69019308BD6402030008B5024BD0
:1041DC001B681B68019308BD3C02030008B5024B29
:1041EC001B68DB68019308BD3C02030008B5024B59
:1041FC001B681B69019308BD3C02030008B5024B08
:10420C001B685B69019308BD3C02030008B5024BB7
:10421C001B689B69019308BD3C02030008B5024B67
:10422C001B68DB69019308BD3C02030008B5024B17
:10423C001B681B6A019308BD3C02030008B5024BC6
:10424C001B689B6A019308BD3C02030008B5024B36
:10425C001B681B6A019308BD2802030008B5024BBA
:10426C001B685B6A019308BD2802030008B5024B6A
:10427C001B689B6A019308BD2802030008B5024B1A
:10428C001B68DB6A019308BD2802030008B5024BCA
:10429C001B681B6B019308BD2802030008B5024B79
:1042AC001B685B6B019308BD2802030008B5024B29
:1042BC001B681B6C019308BD2802030008B5024B58
:1042CC001B68DB69019308BD3002030008B5024B83
:1042DC001B681B6A019308BD3002030008B5024B32
:1042EC001B681B68019308BD4C02030008B5024B08
:1042FC001B681B69019308BD4C02030008B5024BF7
:10430C001B685B69019308BD4C02030008B5024BA6
:10431C001B689B69019308BD4C02030008B5024B56
:10432C001B68DB69019308BD4C02030008B5024B06
:10433C001B681B6A019308BD4C02030008B5024BB5
:10434C001B685B68019308BD2002030008B5024B93
:10435C001B68DB6A019308BD2002030008B5034B00
:10436C001B68D3F88830019308BD000020020300BD
:10437C0008B5034B1B68D3F89430019308BD0000BB
:10438C002002030008B5024B1B685B68019308BD53
:10439C004002030008B5024B1B689B68019308BDE3
:1043AC004002030008B5024B1B68DB68019308BD93
:1043BC004002030008B5024B1B681B69019308BD42
:1043CC004002030008B5024B1B685B69019308BDF2
:1043DC004002030008B5024B1B689B69019308BDA2
:1043EC004002030008B5024B1B68DB69019308BD52
:1043FC004002030008B5024B1B681B6A019308BD01
:10440C004002030008B5024B1B681B6B019308BDEF
:10441C004002030008B5024B1B685B6B019308BD9F
:10442C004002030008B5024B1B681B6C019308BDCE
:10443C004002030008B5024B1B685B6C019308BD7E
:10444C004002030008B5024B1B68DB6B019308BDEF
:10445C004402030008B5024B1B681B68019308BD9E
:10446C001C02030008B5024B1B685B68019308BD76
:10447C001C02030008B5024B1B685B6C019308BD62
:10448C001C020300002240681146FFF7B3BF002254
:10449C0040681146FFF7BEBF40680022FFF7B2BF6D
:1044AC004068002281F00101FFF79CBF00234068A7
:1044BC001A461946FFF78EBF002340681A46194664
:1044CC00FFF780BF002240681146FFF773BF002240
:1044DC0040681146FFF75EBF406800220221FFF7DB
:1044EC0061BF002340681A46FFF74CBF024B032202
:1044FC005A60024A1A60704744E60320484F0D0088
:10450C0010B5044608462170FFF7D8FE00236360FF
:10451C00204610BD10B5094B094C022200201A6030
:10452C00084B2060A080A071A360FFF707FF204616
:10453C00054A0649BDE8104000F098BC58E6032037
:10454C004CE603200000FFFF34E60320AB400D00D7
:10455C0010B50446006808B1FFF728FE204610BDD0
:10456C0010B58368044613B10322014698472046D0
:10457C0010BD000010B5064C002320462360FFF749
:10458C000DFE2046034A0449BDE8104000F06EBC05
:10459C005CE6032034E603205D450D00F8B50646C5
:1045AC000D468F180024BD420CD0336815F8011B42
:1045BC009B6830469847031E01DB1C44F3E7002C34
:1045CC0008BF1C462046F8BD13B50446084659B131
:1045DC00019100F09DFC23680199DB68024620469E
:1045EC0002B0BDE81040184702B010BD03689B68CC
:1045FC00184730B58BB000238DF82430012A98BFB2
:10460C000A2209AC0D46B1FBF2F101FB125303F087
:10461C00FF03092B94BF30333733DBB2AA4204F8C3
:10462C00013DEFD92146FFF7CFFF0BB030BD002382
:10463C0040681A461946FFF7C5BE0000014B024AF6
:10464C001A60704760E603207C4F0D00024B1A681D
:10465C00024B1A60704700BFCCE5032064E60320D0
:10466C0010B50446FFF77CFF204610BD0348044AF2
:10467C0004490023836000F0F9BB00BF68E6032007
:10468C0034E603206D460D00014B1860704700BFE7
:10469C00D0E5032008B50B4B43B100F057F9036884
:1046AC001B699847002801DDAFF30080064B43B12E
:1046BC0000F0CAF903681B699847002801DDAFF3C5
:1046CC00008008BD000000000000000008B5FFF7E6
:1046DC00E1FFFFF75BFD014B186008BDD4E7032039
:1046EC000248034A0349121A00F0D8BB00F4032015
:1046FC0004F40320E0500D0007B5002300931A4684
:10470C006FF07701FFF734FE03B05DF804FB000097
:10471C0007B543880A2B08D0502B0BD1094B1B68CB
:10472C004BB103B05DF804EB1847FFF7E5FF03B09E
:10473C005DF804FB002300931A466FF07701FFF736
:10474C0017FEF4E77CE6032038B5124C1248134DE3
:10475C000021FFF78FFE2368AB42114B0CBF0122E7
:10476C0000221A7002D0FFF7BBFF2560FFF706FD91
:10477C00044600F0A9FB0B4B13B12046AFF30080AD
:10478C0000210848FFF75EFEBDE8384006480021CE
:10479C00FFF7E4BD00F4032095460D001E1C279A7C
:1047AC0078E60320000000001D470D00704710B58F
:1047BC001821044600F05FFB204610BDF0B5037DC8
:1047CC00062B8DB00E4600F104074FF0000412D0FA
:1047DC0000F1080515F8011D0A223046FFF709FF04
:1047EC00AF42044419D0002CF4D02E213046FFF7F0
:1047FC00FDFE0444EEE72F236A4639460A208DF865
:10480C000040FFF7DBFC684600F082FB3368024691
:10481C00DB68694630469847044620460DB0F0BD2B
:10482C0010B5054B0446112240F8043B002100F062
:10483C0043FB204610BD00BFA44F0D000346074AA2
:10484C0010B543F8042B01F1100251F8044B43F856
:10485C00044B9142F9D10A781A7010BDA44F0D0087
:10486C0010B59DF8084044EA032343EA024242EAA9
:10487C00016104234160037510BD000013B5054BA5
:10488C000360CB7800938B784A780978FFF7E8FFC0
:10489C0002B010BDA44F0D0041747047704708B5AD
:1048AC000021007CFFF732FD40EAE07008BD08B53E
:1048BC000121007CFFF72AFD40EAE07008BD08B535
:1048CC00007CFFF71BFD20EAE07008BD08B5007CFA
:1048DC00FFF70CFD20EAE07008BD13B50446007C20
:1048EC000191FFF70BFD0028019901DC607C20B1E0
:1048FC00207CFFF713FD20EAE07002B010BD007CB5
:10490C00FFF714BD10B51421044600F0B4FA20468C
:10491C0010BD000010B54FF47A7304460846002110
:10492C00C4E90113044B2360012320746374114602
:10493C00FFF7D4FC204610BDB84F0D0010B5142263
:10494C000446002100F0B8FA204610BD10B5104CFA
:10495C0088B003A8FFF7F2FF2178BFF35B8F11F04B
:10496C00010111D120460191FFF791FB019958B13A
:10497C0003AA0848FFF7CEFF2046FFF78DFB064A37
:10498C000649044800F072FA024808B010BD00BF96
:10499C0080E6032084E6032034E60320A9480D00BA
:1049AC0070474174704708B5007CFFF747FC20EA5C
:1049BC00E07008BD08B5007CFFF718FC20EAE07039
:1049CC0008BD08B5007CFFF721FC40EAE07008BD8B
:1049DC0008B5007CFFF712FC40EAE07008BD007CD3
:1049EC00FFF71CBC37B5457C04462DB1207C03B0C9
:1049FC00BDE83040FFF7F2BB007C0191FFF71EFCD5
:104A0C0000280199F2DC284603B030BD10B5142102
:104A1C00044600F030FA204610BD000010B54FF0EF
:104A2C00000C0446084611464FF47A72C4E901C2E0
:104A3C00044A22600122207462741A46FFF7C6FBF6
:104A4C00204610BDE84F0D0013B50E4C2178BFF376
:104A5C005B8F11F0010112D120460191FFF717FB7A
:104A6C00019960B1084A094B0948FFF7D7FF204666
:104A7C00FFF712FB074A0849054800F0F7F904480C
:104A8C0002B010BD98E603209CE6032020E703202B
:104A9C00A4E7032034E60320AD490D007047F8B5B8
:104AAC00064615460C468F18BC4206D0336814F8DF
:104ABC00011B9B6830469847F6E72846F8BD007CFA
:104ACC000022FFF7C3BB007C0021FFF7C7BB007CB3
:104ADC000021FFF7CBBB007C0021FFF7CFBB007C94
:104AEC000021FFF7D3BB10B51421044600F0C3F925
:104AFC00204610BD10B54FF47A73044608460021C9
:104B0C00C4E90113034B236020741146FFF7CEFB5D
:104B1C00204610BD18500D00002240681146FFF7CA
:104B2C0049BC002240681146FFF764BC0022406873
:104B3C001146FFF76FBC40680022FFF763BC40686A
:104B4C00002281F00101FFF74DBC002340681A469A
:104B5C001946FFF73FBC002240681146FFF71ABC0C
:104B6C00406800220221FFF71DBC002340681A4652
:104B7C00FFF708BC024B04225A60024A1A607047C5
:104B8C00B8E7032040500D00002340681A46FFF799
:104B9C00F9BB406800220221FFF704BC00224068E8
:104BAC001146FFF7F7BB002240681146FFF702BC25
:104BBC00002340681A461946FFF704BC00234068DE
:104BCC001A461946FFF706BC40680021FFF72ABCBD
:104BDC0040680021FFF72EBC4068002281F00101E3
:104BEC00FFF700BC40680022FFF70CBC00224068B5
:104BFC001146FFF70FBC002240681146FFF7FABBC5
:104C0C002DE9F043002495B016460D460746FFF7F4
:104C1C0007FE214618220EA8009400F04DF94023FF
:104C2C00CDE90C3421466B460CAA3046FFF77EFAD0
:104C3C00044600284CD1024601216868FFF7BAFBF4
:104C4C000221804622466868FFF7B4FB009E81462D
:104C5C002146002E3CD000293AD17368022B03D098
:104C6C000A2B11D0F669F4E7B8F1000F0AD071697C
:104C7C0006A8043107ADFFF701FE0FCD3C1D0FC494
:104C8C002B6823704146EDE7B9F1000F01D149467D
:104C9C00E8E77469102201A800F00EF906238DF8DC
:104CAC00143001AD04F108031834186859682A4609
:104CBC0003C20833A3421546F7D101A906A807ADD4
:104CCC00FFF7BCFD0FCD3C1D0FC42B682370DEE736
:104CDC000098FFF723FA384615B0BDE8F0830000C2
:104CEC00024B034A1A6000225A607047C0E7032047
:104CFC007C500D00232813B502D9002002B010BD42
:104D0C00A0F10B03022B1AD8174C2178BFF35B8F41
:104D1C0011F001010BD120460191FFF7B8F901996F
:104D2C0028B11248FFF7ECFB2046FFF7B5F90F4B03
:104D3C001878FFF7CBFA0028DFD10120DEE7012835
:104D4C0009D800F06BF80021007CFFF7A7FA80F07F
:104D5C000100C0B2D2E709380128EED8FFF774FE83
:104D6C00007CFFF763FAF2E7C8E70320CCE70320E7
:104D7C00232838B504460D460AD8FF2908D0FFF77A
:104D8C00B9FF28B129462046BDE83840FFF7D6B90F
:104D9C0038BD38B504460D46FFF7D8F9FF2810D0BA
:104DAC00062804D84D2323FA00F0C30709D4204663
:104DBC00FFF7A0FF28B129462046BDE83840FFF791
:104DCC00CDB938BD10B50446FFF7C0F9031FDBB2EF
:104DDC00012B08D92046FFF78DFF20B12046BDE8F6
:104DEC001040FFF7C3B9002010BD000038B50023F8
:104DFC002025438014230446038085600561064901
:104E0C00284600F03AF804496060284600F035F86E
:104E1C00E060204638BD00BFB0500D0030B50F4DDE
:104E2C002978BFF35B8F11F0010487B013D12846AA
:104E3C00FFF72DF978B101A8FFF7D8FF01AA214699
:104E4C000748FFF757FE2846FFF726F9054A06499B
:104E5C00034800F00BF8024807B030BDD8E7032038
:104E6C00DCE7032034E60320A94A0D000B4601467B
:104E7C00184600F005B8FFF708B9FFF704B90000B1
:104E8C0010B5054C13462CB10A4601460220AFF36F
:104E9C00008010BD2046FCE7000000000A4491424F
:104EAC0000F1FF3300D1704710B511F8014B03F836
:104EBC00014F9142F9D110BD02440346934200D1F7
:104ECC00704703F8011BF9E738B50D4B1D68AB6B48
:104EDC0004467BB91820FFF7BDFA0A4A0A4BA863AF
:104EEC00C0E90023094B83600B238381012200233B
:104EFC00C0E90423AB6B00221C615A6138BD00BFB2
:104F0C00D0E503200E33CDAB34126DE6ECDE05009C
:104F1C00034613F8012B002AFBD1181A01387047ED
:104F2C001D400D0059400D0081400D0085400D00C5
:104F3C00000000000000000000000000EF440D0025
:104F4C00E5440D00DB440D00D1440D00C5440D00BB
:104F5C00B9440D00D54B0D00DD4B0D00AD440D00DB
:104F6C00A5440D009B440D0091440D000D4C0D000B
:104F7C006170700025592D256D2D25645425483AF6
:104F8C00254D3A2553257A0061736374696D65006C
:104F9C000000000000000000C9470D00B9470D00DB
:104FAC00BB470D000000000000000000A9480D00E8
:104FBC0011490D00E7480D00A9450D00D9480D0019
:104FCC00AB480D00BB480D000B490D00CB480D0044
:104FDC00A5480D000000000000000000AD490D00C8
:104FEC00194A0D00F1490D00A9450D00C1490D00EC
:104FFC00DD490D00CF490D00EB490D00AF490D0007
:10500C00B3490D000000000000000000A94A0D008B
:10501C00F34A0D00CB4A0D00AB4A0D00D34A0D00EC
:10502C00DB4A0D00E34A0D00EB4A0D0000000000C6
:10503C0000000000774B0D006D4B0D00634B0D0015
:10504C00254B0D003B460D00574B0D00D54B0D006D
:10505C00DD4B0D004B4B0D00434B0D00394B0D0040
:10506C002F4B0D000D4C0D00000000000000000047
:10507C00954B0D009F4B0D00A94B0D00B34B0D0034
:10508C00BD4B0D00C94B0D00D54B0D00DD4B0D007C
:10509C00E54B0D00F14B0D00F94B0D00034C0D00D1
:1050AC000D4C0D0000000000ED400D00F9440D000A
:1050BC0021450D0081450D0049460D0059460D0056
:1050CC0079460D00814B0D00ED4C0D0000000000E9
:0450DC0000000000D0
:0450E00000000000CC
:1050E400944F0D00D4E503200000000000000000F0
:1050F40000000000000000000000000000000000AC
:10510400000000000000000000000000000000009B
:10511400000000000000000000000000000000008B
:10512400000000000000000000000000000000007B
:10513400000000000000000000000000000000006B
:08514400000000000000000063
:10514C00FFFFFFFF00000102030405060708090A20
:10515C000B0C0D0E0F101112131415161718191A1B
:08516C001B1C1D1E1F20280062
:045174007856341223
:04000003D000401CCD
:00000001FF
